{
  "contractName": "DestinationChain",
  "abi": [
    {
      "constant": false,
      "inputs": [],
      "name": "entryTransaction",
      "outputs": [],
      "payable": false,
      "stateMutability": "nonpayable",
      "type": "function"
    }
  ],
  "bytecode": "0x6080604052348015600f57600080fd5b50606c80601d6000396000f3fe6080604052348015600f57600080fd5b506004361060285760003560e01c80631a5e6ba414602d575b600080fd5b60336035565b005b56fea265627a7a723158208ef97f1b9105eb1005952357c6949a5b28f7fe13a026486516e6d526b671f0b364736f6c63430005100032",
  "source": "pragma solidity >=0.4.22 <0.7.0;\r\n\r\ncontract DestinationChain {\r\n//defin the paramaters\r\n\r\n\r\nfunction entryTransaction() external {\r\n\r\n}\r\n\r\nfunction importVerifier() private view {\r\n  //  if (spendVerifier() and proofVerifier()) is true\r\n //   returns true\r\n  //  else\r\n  //  returns\r\n  //  false\r\n    \r\n}\r\n\r\nfunction spendVerifier() private pure returns (bool results){\r\n return true;\r\n}\r\n\r\nfunction proofVerifier() private pure returns (bool results){\r\n return true;\r\n}\r\n\r\n}\r\n",
  "sourcePath": "C:\\Users\\Paul\\Documents\\GitHub\\burn-to-claim\\contracts\\DestinationChain.sol",
  "compiler": {
    "name": "solc",
    "version": "0.5.16+commit.9c3226ce.Emscripten.clang"
  },
  "schemaVersion": "3.2.0",
  "updatedAt": "2020-07-08T07:03:06.154Z",
  "devdoc": {
    "methods": {}
  },
  "userdoc": {
    "methods": {}
  }
}