{
  "contractName": "SourceChain",
  "abi": [
    {
      "inputs": [
        {
          "internalType": "contract Token",
          "name": "_token",
          "type": "address"
        }
      ],
      "payable": false,
      "stateMutability": "nonpayable",
      "type": "constructor"
    },
    {
      "anonymous": false,
      "inputs": [
        {
          "indexed": false,
          "internalType": "address",
          "name": "account",
          "type": "address"
        },
        {
          "indexed": false,
          "internalType": "address",
          "name": "token",
          "type": "address"
        },
        {
          "indexed": false,
          "internalType": "uint256",
          "name": "amount",
          "type": "uint256"
        }
      ],
      "name": "TokenPurchased",
      "type": "event"
    },
    {
      "anonymous": false,
      "inputs": [
        {
          "indexed": false,
          "internalType": "address",
          "name": "account",
          "type": "address"
        },
        {
          "indexed": false,
          "internalType": "address",
          "name": "token",
          "type": "address"
        },
        {
          "indexed": false,
          "internalType": "uint256",
          "name": "amount",
          "type": "uint256"
        }
      ],
      "name": "TokensSold",
      "type": "event"
    },
    {
      "constant": true,
      "inputs": [],
      "name": "token",
      "outputs": [
        {
          "internalType": "contract Token",
          "name": "",
          "type": "address"
        }
      ],
      "payable": false,
      "stateMutability": "view",
      "type": "function"
    },
    {
      "constant": false,
      "inputs": [],
      "name": "exitTransaction",
      "outputs": [],
      "payable": false,
      "stateMutability": "nonpayable",
      "type": "function"
    },
    {
      "constant": true,
      "inputs": [],
      "name": "exportVerifier",
      "outputs": [
        {
          "internalType": "bool",
          "name": "results",
          "type": "bool"
        }
      ],
      "payable": false,
      "stateMutability": "pure",
      "type": "function"
    },
    {
      "constant": true,
      "inputs": [],
      "name": "spendVerifier",
      "outputs": [
        {
          "internalType": "bool",
          "name": "results",
          "type": "bool"
        }
      ],
      "payable": false,
      "stateMutability": "pure",
      "type": "function"
    },
    {
      "constant": true,
      "inputs": [],
      "name": "assetVerifier",
      "outputs": [
        {
          "internalType": "bool",
          "name": "results",
          "type": "bool"
        }
      ],
      "payable": false,
      "stateMutability": "pure",
      "type": "function"
    },
    {
      "constant": false,
      "inputs": [],
      "name": "buyTokens",
      "outputs": [],
      "payable": true,
      "stateMutability": "payable",
      "type": "function"
    },
    {
      "constant": false,
      "inputs": [
        {
          "internalType": "uint256",
          "name": "_amount",
          "type": "uint256"
        }
      ],
      "name": "sellTokens",
      "outputs": [],
      "payable": false,
      "stateMutability": "nonpayable",
      "type": "function"
    }
  ],
  "bytecode": "0x608060405234801561001057600080fd5b506040516104a13803806104a18339818101604052602081101561003357600080fd5b5051600080546001600160a01b039092166001600160a01b031990921691909117905561043c806100656000396000f3fe6080604052600436106100705760003560e01c80639e8de3ed1161004e5780639e8de3ed146100b6578063d0febe4c146100df578063facc3943146100b6578063fc0c546a146100e757610070565b80636c11bcd3146100755780636e1b0789146100a157806396cbc43a146100b6575b600080fd5b34801561008157600080fd5b5061009f6004803603602081101561009857600080fd5b5035610118565b005b3480156100ad57600080fd5b5061009f61029c565b3480156100c257600080fd5b506100cb61029e565b604080519115158252519081900360200190f35b61009f6102a3565b3480156100f357600080fd5b506100fc6103f8565b604080516001600160a01b039092168252519081900360200190f35b600054604080516370a0823160e01b8152336004820152905183926001600160a01b0316916370a08231916024808301926020929190829003018186803b15801561016257600080fd5b505afa158015610176573d6000803e3d6000fd5b505050506040513d602081101561018c57600080fd5b5051101561019957600080fd5b60008054604080516323b872dd60e01b81523360048201523060248201526044810185905290516001600160a01b03909216926323b872dd926064808401936020939083900390910190829087803b1580156101f457600080fd5b505af1158015610208573d6000803e3d6000fd5b505050506040513d602081101561021e57600080fd5b5050604051339082156108fc029083906000818181858888f1935050505015801561024d573d6000803e3d6000fd5b50600054604080513381526001600160a01b039092166020830152818101839052517f481809cba951bfbd752234d0504d4719277804f87f6e0da1b5b486c80d808fe49181900360600190a150565b565b600190565b600054604080516370a0823160e01b81523060048201529051349283926001600160a01b03909116916370a0823191602480820192602092909190829003018186803b1580156102f257600080fd5b505afa158015610306573d6000803e3d6000fd5b505050506040513d602081101561031c57600080fd5b5051101561032957600080fd5b600080546040805163a9059cbb60e01b81523360048201526024810185905290516001600160a01b039092169263a9059cbb926044808401936020939083900390910190829087803b15801561037e57600080fd5b505af1158015610392573d6000803e3d6000fd5b505050506040513d60208110156103a857600080fd5b5050600054604080513381526001600160a01b039092166020830152818101839052517f6f1484a4f7f63ca4907ad663391c1a0791c0a77cc97042c4a4b3162476c0ab109181900360600190a150565b6000546001600160a01b03168156fea265627a7a72315820eb052a1c5387d7ba9844981bb4c85b3f95c901fb2cc9e452bc7aee65436608bc64736f6c63430005100032",
  "source": "pragma solidity >=0.4.22 <0.7.0;\r\n\r\n//impiort the token contract\r\nimport \"./Token.sol\";\r\n\r\ncontract SourceChain {\r\n\r\n//defin the paramaters\r\nToken public token; // instance of the token contract\r\nstring secretKey; //Secret Key\r\naddress burnAddress; //Burn address\r\nuint timeLock; //time lock \r\n\r\n\r\n//events\r\nevent TokenPurchased(address account, address token, uint amount);\r\nevent TokensSold(address account,address token,uint amount);\r\n\r\n// transfer the tokens from token contract\r\nconstructor (Token _token) public {\r\n    token = _token;\r\n}\r\n\r\n// main function\r\nfunction exitTransaction() external {\r\n    // if exportVerifier() is true\r\n    //transfer the asset to a burn address\r\n    //lock the asset/transaction  output\r\n    //add a hash value of scret key to the transaction  \r\n}\r\n\r\nfunction exportVerifier() public pure returns (bool results){\r\n//if (spendVerifier() and assetVerifier()) is true\r\n//return true\r\n//else\r\nreturn true;\r\n}\r\n\r\nfunction spendVerifier() public pure returns (bool results){\r\n//check the signature\r\nreturn true;\r\n}\r\n\r\nfunction assetVerifier() public  pure returns (bool results){\r\n//check the asset validity\r\nreturn true;\r\n}\r\n\r\n// working code...\r\nfunction buyTokens() public payable{\r\n    \r\n    uint tokenAmount = msg.value;\r\n\r\n    // Require that contract has enough tokens\r\n    require(token.balanceOf(address(this)) >= tokenAmount);\r\n\r\n    // Transfer tokens to the user\r\n    token.transfer(msg.sender, tokenAmount);\r\n\r\n    //token purchin event\r\n    emit TokenPurchased(msg.sender,address(token),tokenAmount);\r\n}\r\n// working code...\r\nfunction sellTokens(uint _amount) public {\r\n    // User can't sell more tokens than they have\r\n    require(token.balanceOf(msg.sender) >= _amount);\r\n\r\n     // Perform sale\r\n    token.transferFrom(msg.sender, address(this), _amount);\r\n    msg.sender.transfer(_amount);\r\n\r\n    // Emit an event\r\n    emit TokensSold(msg.sender, address(token), _amount);\r\n}\r\n\r\n}",
  "sourcePath": "C:\\_ethereum\\burn-to-claim\\contracts\\SourceChain.sol",
  "compiler": {
    "name": "solc",
    "version": "0.5.16+commit.9c3226ce.Emscripten.clang"
  },
  "schemaVersion": "3.2.0",
  "updatedAt": "2020-06-22T06:19:34.372Z",
  "networkType": "ethereum",
  "devdoc": {
    "methods": {}
  },
  "userdoc": {
    "methods": {}
  }
}