{
  "contractName": "SourceChain",
  "abi": [
    {
      "inputs": [
        {
          "internalType": "contract Token",
          "name": "_token",
          "type": "address"
        }
      ],
      "payable": false,
      "stateMutability": "nonpayable",
      "type": "constructor"
    },
    {
      "anonymous": false,
      "inputs": [
        {
          "indexed": false,
          "internalType": "address",
          "name": "account",
          "type": "address"
        },
        {
          "indexed": false,
          "internalType": "address",
          "name": "token",
          "type": "address"
        },
        {
          "indexed": false,
          "internalType": "uint256",
          "name": "amount",
          "type": "uint256"
        }
      ],
      "name": "TokenPurchased",
      "type": "event"
    },
    {
      "anonymous": false,
      "inputs": [
        {
          "indexed": false,
          "internalType": "address",
          "name": "account",
          "type": "address"
        },
        {
          "indexed": false,
          "internalType": "address",
          "name": "token",
          "type": "address"
        },
        {
          "indexed": false,
          "internalType": "uint256",
          "name": "amount",
          "type": "uint256"
        }
      ],
      "name": "TokensSold",
      "type": "event"
    },
    {
      "constant": true,
      "inputs": [],
      "name": "token",
      "outputs": [
        {
          "internalType": "contract Token",
          "name": "",
          "type": "address"
        }
      ],
      "payable": false,
      "stateMutability": "view",
      "type": "function"
    },
    {
      "constant": false,
      "inputs": [
        {
          "internalType": "address",
          "name": "_burnaddress",
          "type": "address"
        },
        {
          "internalType": "uint256",
          "name": "_amount",
          "type": "uint256"
        }
      ],
      "name": "exitTransaction",
      "outputs": [],
      "payable": false,
      "stateMutability": "nonpayable",
      "type": "function"
    },
    {
      "constant": true,
      "inputs": [],
      "name": "exportVerifier",
      "outputs": [
        {
          "internalType": "bool",
          "name": "results",
          "type": "bool"
        }
      ],
      "payable": false,
      "stateMutability": "pure",
      "type": "function"
    },
    {
      "constant": true,
      "inputs": [],
      "name": "spendVerifier",
      "outputs": [
        {
          "internalType": "bool",
          "name": "results",
          "type": "bool"
        }
      ],
      "payable": false,
      "stateMutability": "pure",
      "type": "function"
    },
    {
      "constant": true,
      "inputs": [],
      "name": "assetVerifier",
      "outputs": [
        {
          "internalType": "bool",
          "name": "results",
          "type": "bool"
        }
      ],
      "payable": false,
      "stateMutability": "pure",
      "type": "function"
    },
    {
      "constant": false,
      "inputs": [],
      "name": "reclaimTransaction",
      "outputs": [],
      "payable": false,
      "stateMutability": "nonpayable",
      "type": "function"
    },
    {
      "constant": true,
      "inputs": [],
      "name": "reclaimVerifier",
      "outputs": [
        {
          "internalType": "bool",
          "name": "results",
          "type": "bool"
        }
      ],
      "payable": false,
      "stateMutability": "pure",
      "type": "function"
    },
    {
      "constant": true,
      "inputs": [],
      "name": "proofVerifier",
      "outputs": [
        {
          "internalType": "bool",
          "name": "results",
          "type": "bool"
        }
      ],
      "payable": false,
      "stateMutability": "pure",
      "type": "function"
    },
    {
      "constant": false,
      "inputs": [],
      "name": "buyTokens",
      "outputs": [],
      "payable": true,
      "stateMutability": "payable",
      "type": "function"
    },
    {
      "constant": false,
      "inputs": [
        {
          "internalType": "uint256",
          "name": "_amount",
          "type": "uint256"
        }
      ],
      "name": "sellTokens",
      "outputs": [],
      "payable": false,
      "stateMutability": "nonpayable",
      "type": "function"
    }
  ],
  "bytecode": "0x608060405234801561001057600080fd5b506040516105a43803806105a48339818101604052602081101561003357600080fd5b5051600080546001600160a01b039092166001600160a01b031990921691909117905561053f806100656000396000f3fe6080604052600436106100915760003560e01c80639e8de3ed116100595780639e8de3ed14610096578063b44ac2a214610115578063d0febe4c1461014e578063facc394314610096578063fc0c546a1461015657610091565b806316829b921461009657806348496d10146100bf5780636c11bcd3146100d65780637fa417b31461010057806396cbc43a14610096575b600080fd5b3480156100a257600080fd5b506100ab610187565b604080519115158252519081900360200190f35b3480156100cb57600080fd5b506100d461018c565b005b3480156100e257600080fd5b506100d4600480360360208110156100f957600080fd5b503561018e565b34801561010c57600080fd5b506100ab610312565b34801561012157600080fd5b506100d46004803603604081101561013857600080fd5b506001600160a01b038135169060200135610317565b6100d46103a6565b34801561016257600080fd5b5061016b6104fb565b604080516001600160a01b039092168252519081900360200190f35b600190565b565b600054604080516370a0823160e01b8152336004820152905183926001600160a01b0316916370a08231916024808301926020929190829003018186803b1580156101d857600080fd5b505afa1580156101ec573d6000803e3d6000fd5b505050506040513d602081101561020257600080fd5b5051101561020f57600080fd5b60008054604080516323b872dd60e01b81523360048201523060248201526044810185905290516001600160a01b03909216926323b872dd926064808401936020939083900390910190829087803b15801561026a57600080fd5b505af115801561027e573d6000803e3d6000fd5b505050506040513d602081101561029457600080fd5b5050604051339082156108fc029083906000818181858888f193505050501580156102c3573d6000803e3d6000fd5b50600054604080513381526001600160a01b039092166020830152818101839052517f481809cba951bfbd752234d0504d4719277804f87f6e0da1b5b486c80d808fe49181900360600190a150565b600090565b60008054604080516323b872dd60e01b81523360048201526001600160a01b03868116602483015260448201869052915191909216926323b872dd92606480820193602093909283900390910190829087803b15801561037657600080fd5b505af115801561038a573d6000803e3d6000fd5b505050506040513d60208110156103a057600080fd5b50505050565b600054604080516370a0823160e01b81523060048201529051349283926001600160a01b03909116916370a0823191602480820192602092909190829003018186803b1580156103f557600080fd5b505afa158015610409573d6000803e3d6000fd5b505050506040513d602081101561041f57600080fd5b5051101561042c57600080fd5b600080546040805163a9059cbb60e01b81523360048201526024810185905290516001600160a01b039092169263a9059cbb926044808401936020939083900390910190829087803b15801561048157600080fd5b505af1158015610495573d6000803e3d6000fd5b505050506040513d60208110156104ab57600080fd5b5050600054604080513381526001600160a01b039092166020830152818101839052517f6f1484a4f7f63ca4907ad663391c1a0791c0a77cc97042c4a4b3162476c0ab109181900360600190a150565b6000546001600160a01b03168156fea265627a7a72315820799b8700a1c50a544b3d65b77abfa09720b8976221bd6202e080a4083068f21264736f6c63430005100032",
  "source": "pragma solidity >=0.4.22 <0.7.0;\r\n\r\n//impiort the token contract\r\nimport \"./Token.sol\";\r\n\r\ncontract SourceChain {\r\n\r\n//defin the paramaters\r\nToken public token; // instance of the token contract\r\nstring secretKey; //Secret Key\r\naddress burnAddress; //Burn address\r\nuint timeLock; //time lock\r\n\r\n//events\r\nevent TokenPurchased(address account, address token, uint amount);\r\nevent TokensSold(address account,address token,uint amount);\r\n\r\n// transfer the tokens from token contract\r\nconstructor (Token _token) public {\r\n    token = _token;\r\n}\r\n\r\n// main function\r\n// \r\nfunction exitTransaction(address _burnaddress, uint _amount) external {\r\n// if exportVerifier() is true\r\n// transfer the asset to a burn address\r\n  token.transferFrom(msg.sender, _burnaddress, _amount);\r\n// lock the asset/transaction output\r\n// add a hash value of scret key to the transaction\r\n\r\n}\r\n\r\nfunction exportVerifier() public pure returns (bool results){\r\n//if (spendVerifier() and assetVerifier()) is true\r\n//return true\r\n//else\r\nreturn true;\r\n}\r\n\r\nfunction spendVerifier() public pure returns (bool results){\r\n//check the signature\r\n// chck the address is generted from the given public key\r\n\r\nreturn true;\r\n}\r\n\r\nfunction assetVerifier() public pure returns (bool results){\r\n//check the asset validity\r\nreturn true;\r\n}\r\n\r\n// this function is to reclaim the asset\r\n// as per the algorithm 6\r\n\r\nfunction reclaimTransaction() external{\r\n//if reclaimVerifier() return true;\r\n// check the time lock period\r\n// require(now >= timeLock);\r\n// check the secret key\r\n// reclaim the token\r\n// token.transfer(to_address, _amount);\r\n}\r\n\r\nfunction reclaimVerifier() public pure returns (bool results){\r\n  // if (spendVerifier() and proofVerifier()) is true then\r\n    return true;\r\n}\r\n\r\nfunction proofVerifier() public pure returns (bool results){\r\n\r\n}\r\n\r\n// working and testing code...\r\nfunction buyTokens() public payable{\r\n    \r\n    uint tokenAmount = msg.value;\r\n\r\n    // Require that contract has enough tokens\r\n    require(token.balanceOf(address(this)) >= tokenAmount);\r\n\r\n    // Transfer tokens to the user\r\n    token.transfer(msg.sender, tokenAmount);\r\n\r\n    //token purchin event\r\n    emit TokenPurchased(msg.sender,address(token),tokenAmount);\r\n}\r\n// working code...\r\nfunction sellTokens(uint _amount) public {\r\n    // User can't sell more tokens than they have\r\n    require(token.balanceOf(msg.sender) >= _amount);\r\n\r\n     // Perform sale\r\n    token.transferFrom(msg.sender, address(this), _amount);\r\n    msg.sender.transfer(_amount);\r\n\r\n    // Emit an event\r\n    emit TokensSold(msg.sender, address(token), _amount);\r\n}\r\n\r\n}",
  "sourcePath": "C:\\_ethereum\\burn-to-claim\\contracts\\SourceChain.sol",
  "compiler": {
    "name": "solc",
    "version": "0.5.16+commit.9c3226ce.Emscripten.clang"
  },
  "schemaVersion": "3.2.0",
  "updatedAt": "2020-06-24T03:47:11.544Z",
  "networkType": "ethereum",
  "devdoc": {
    "methods": {}
  },
  "userdoc": {
    "methods": {}
  }
}