{
  "contractName": "SourceChain",
  "abi": [
    {
      "inputs": [
        {
          "internalType": "contract Token",
          "name": "_token",
          "type": "address"
        }
      ],
      "payable": false,
      "stateMutability": "nonpayable",
      "type": "constructor"
    },
    {
      "anonymous": false,
      "inputs": [
        {
          "indexed": true,
          "internalType": "bytes32",
          "name": "contractId",
          "type": "bytes32"
        }
      ],
      "name": "HTLCERC20Refund",
      "type": "event"
    },
    {
      "anonymous": false,
      "inputs": [
        {
          "indexed": true,
          "internalType": "bytes32",
          "name": "contractId",
          "type": "bytes32"
        }
      ],
      "name": "HTLCERC20Withdraw",
      "type": "event"
    },
    {
      "anonymous": false,
      "inputs": [
        {
          "indexed": false,
          "internalType": "address",
          "name": "account_from",
          "type": "address"
        },
        {
          "indexed": false,
          "internalType": "address",
          "name": "address_to",
          "type": "address"
        },
        {
          "indexed": false,
          "internalType": "uint256",
          "name": "unit_token",
          "type": "uint256"
        },
        {
          "indexed": false,
          "internalType": "bytes32",
          "name": "_secretCode",
          "type": "bytes32"
        },
        {
          "indexed": false,
          "internalType": "uint256",
          "name": "_timelock",
          "type": "uint256"
        },
        {
          "indexed": false,
          "internalType": "uint256",
          "name": "_assetStatus",
          "type": "uint256"
        }
      ],
      "name": "event_exitTransaction",
      "type": "event"
    },
    {
      "anonymous": false,
      "inputs": [
        {
          "indexed": false,
          "internalType": "address",
          "name": "account_from",
          "type": "address"
        },
        {
          "indexed": false,
          "internalType": "address",
          "name": "account_to",
          "type": "address"
        },
        {
          "indexed": false,
          "internalType": "uint256",
          "name": "unit_token",
          "type": "uint256"
        }
      ],
      "name": "event_tokensSold",
      "type": "event"
    },
    {
      "constant": true,
      "inputs": [],
      "name": "token",
      "outputs": [
        {
          "internalType": "contract Token",
          "name": "",
          "type": "address"
        }
      ],
      "payable": false,
      "stateMutability": "view",
      "type": "function"
    },
    {
      "constant": false,
      "inputs": [
        {
          "internalType": "uint256",
          "name": "_asset",
          "type": "uint256"
        },
        {
          "internalType": "address",
          "name": "_burnAddress",
          "type": "address"
        },
        {
          "internalType": "bytes32",
          "name": "_secretCode",
          "type": "bytes32"
        },
        {
          "internalType": "uint256",
          "name": "_timelock",
          "type": "uint256"
        }
      ],
      "name": "exitTransaction",
      "outputs": [
        {
          "internalType": "bytes32",
          "name": "contractId",
          "type": "bytes32"
        }
      ],
      "payable": true,
      "stateMutability": "payable",
      "type": "function"
    },
    {
      "constant": false,
      "inputs": [
        {
          "internalType": "bytes32",
          "name": "_contractId",
          "type": "bytes32"
        },
        {
          "internalType": "bytes32",
          "name": "_preimage",
          "type": "bytes32"
        }
      ],
      "name": "entryTransaction",
      "outputs": [
        {
          "internalType": "bool",
          "name": "",
          "type": "bool"
        }
      ],
      "payable": true,
      "stateMutability": "payable",
      "type": "function"
    },
    {
      "constant": false,
      "inputs": [
        {
          "internalType": "bytes32",
          "name": "_contractId",
          "type": "bytes32"
        },
        {
          "internalType": "bytes32",
          "name": "_preimage",
          "type": "bytes32"
        }
      ],
      "name": "reclaimTransaction",
      "outputs": [
        {
          "internalType": "bool",
          "name": "",
          "type": "bool"
        }
      ],
      "payable": true,
      "stateMutability": "payable",
      "type": "function"
    },
    {
      "constant": true,
      "inputs": [],
      "name": "exportVerifier",
      "outputs": [
        {
          "internalType": "bool",
          "name": "results",
          "type": "bool"
        }
      ],
      "payable": false,
      "stateMutability": "pure",
      "type": "function"
    },
    {
      "constant": true,
      "inputs": [],
      "name": "spendVerifier",
      "outputs": [
        {
          "internalType": "bool",
          "name": "results",
          "type": "bool"
        }
      ],
      "payable": false,
      "stateMutability": "pure",
      "type": "function"
    },
    {
      "constant": true,
      "inputs": [],
      "name": "assetVerifier",
      "outputs": [
        {
          "internalType": "bool",
          "name": "results",
          "type": "bool"
        }
      ],
      "payable": false,
      "stateMutability": "pure",
      "type": "function"
    },
    {
      "constant": true,
      "inputs": [],
      "name": "reclaimVerifier",
      "outputs": [
        {
          "internalType": "bool",
          "name": "results",
          "type": "bool"
        }
      ],
      "payable": false,
      "stateMutability": "pure",
      "type": "function"
    },
    {
      "constant": true,
      "inputs": [],
      "name": "proofVerifier",
      "outputs": [
        {
          "internalType": "bool",
          "name": "results",
          "type": "bool"
        }
      ],
      "payable": false,
      "stateMutability": "pure",
      "type": "function"
    },
    {
      "constant": false,
      "inputs": [],
      "name": "buyTokens",
      "outputs": [],
      "payable": true,
      "stateMutability": "payable",
      "type": "function"
    }
  ],
  "bytecode": "0x608060405234801561001057600080fd5b50604051610b7c380380610b7c8339818101604052602081101561003357600080fd5b5051600080546001600160a01b039092166001600160a01b0319909216919091179055610b17806100656000396000f3fe6080604052600436106100915760003560e01c806396cbc43a1161005957806396cbc43a146100965780639e8de3ed14610096578063d0febe4c1461012c578063facc394314610096578063fc0c546a1461013657610091565b806316829b92146100965780637fa417b314610096578063824af90f146100bf578063825b343f146100bf578063838d1ac4146100e2575b600080fd5b3480156100a257600080fd5b506100ab610167565b604080519115158252519081900360200190f35b6100ab600480360360408110156100d557600080fd5b508035906020013561016c565b61011a600480360360808110156100f857600080fd5b508035906001600160a01b0360208201351690604081013590606001356104d7565b60408051918252519081900360200190f35b6101346108cd565b005b34801561014257600080fd5b5061014b610a22565b604080516001600160a01b039092168252519081900360200190f35b600190565b600061017783610a31565b6101c8576040805162461bcd60e51b815260206004820152601960248201527f636f6e7472616374496420646f6573206e6f7420657869737400000000000000604482015290519081900360640190fd5b600282604051602001808281526020019150506040516020818303038152906040526040518082805190602001908083835b602083106102195780518252601f1990920191602091820191016101fa565b51815160209384036101000a60001901801990921691161790526040519190930194509192505080830381855afa158015610258573d6000803e3d6000fd5b5050506040513d602081101561026d57600080fd5b5051600084815260016020526040902060030154146102d3576040805162461bcd60e51b815260206004820152601c60248201527f686173686c6f636b206861736820646f6573206e6f74206d6174636800000000604482015290519081900360640190fd5b600083815260016020819052604090912001546001600160a01b03163314610342576040805162461bcd60e51b815260206004820152601a60248201527f776974686472617761626c653a206e6f74207265636569766572000000000000604482015290519081900360640190fd5b60008381526001602052604090206005015460ff16156103a9576040805162461bcd60e51b815260206004820152601f60248201527f776974686472617761626c653a20616c72656164792077697468647261776e00604482015290519081900360640190fd5b60008381526001602052604090206004015442106103f85760405162461bcd60e51b8152600401808060200182810382526031815260200180610ab26031913960400191505060405180910390fd5b60008381526001602081815260408084206006810187905560058101805460ff191690941790935583546002840154825163a9059cbb60e01b81523360048201526024810191909152915193946001600160a01b039091169363a9059cbb936044808501949193918390030190829087803b15801561047657600080fd5b505af115801561048a573d6000803e3d6000fd5b505050506040513d60208110156104a057600080fd5b505060405184907f15a71365fee30a355046c80d10aab98a49c3558b2272658d6c551733203e9bbe90600090a25060019392505050565b600080851161052d576040805162461bcd60e51b815260206004820152601860248201527f617373657420616d6f756e74206d757374206265203e20300000000000000000604482015290519081900360640190fd5b42821161056b5760405162461bcd60e51b8152600401808060200182810382526023815260200180610a6d6023913960400191505060405180910390fd5b6002338587868660405160200180866001600160a01b03166001600160a01b031660601b8152601401856001600160a01b03166001600160a01b031660601b8152601401848152602001838152602001828152602001955050505050506040516020818303038152906040526040518082805190602001908083835b602083106106065780518252601f1990920191602091820191016105e7565b51815160209384036101000a60001901801990921691161790526040519190930194509192505080830381855afa158015610645573d6000803e3d6000fd5b5050506040513d602081101561065a57600080fd5b5051905061066781610a31565b156106b9576040805162461bcd60e51b815260206004820152601a60248201527f5472616e73616374696f6e20616c726561647920657869737473000000000000604482015290519081900360640190fd5b60008054604080516323b872dd60e01b81523360048201526001600160a01b038881166024830152604482018a9052915191909216926323b872dd92606480820193602093909283900390910190829087803b15801561071857600080fd5b505af115801561072c573d6000803e3d6000fd5b505050506040513d602081101561074257600080fd5b505161077f5760405162461bcd60e51b8152600401808060200182810382526022815260200180610a906022913960400191505060405180910390fd5b6000805460ff60a01b1916600160a11b178155604080516101008082018352338083526001600160a01b0389811660208086019182528587018d8152606087018c8152608088018c815260a089018b815260c08a018c815260e08b018d81528e8e526001968790529b909c2099518a549088166001600160a01b0319918216178b559551948a0180549590971694909516939093179094555160028701559151600386015590516004850155516005840180549651151590930261ff001991151560ff19909716969096171694909417905590516006909101557fe377b499c44b3f95d3f3c5a895b32e8d6df9c8e4222da9802cfbcf361e6c5fee9085878686610887610a4e565b604080516001600160a01b039788168152959096166020860152848601939093526060840191909152608083015260a082015290519081900360c00190a1949350505050565b600054604080516370a0823160e01b81523060048201529051349283926001600160a01b03909116916370a0823191602480820192602092909190829003018186803b15801561091c57600080fd5b505afa158015610930573d6000803e3d6000fd5b505050506040513d602081101561094657600080fd5b5051101561095357600080fd5b600080546040805163a9059cbb60e01b81523360048201526024810185905290516001600160a01b039092169263a9059cbb926044808401936020939083900390910190829087803b1580156109a857600080fd5b505af11580156109bc573d6000803e3d6000fd5b505050506040513d60208110156109d257600080fd5b5050600054604080513381526001600160a01b039092166020830152818101839052517f7007bc29a103fd08e84c31c574ced1767c37dc3a8450bee57025a64d1750eaf39181900360600190a150565b6000546001600160a01b031681565b6000908152600160205260409020546001600160a01b0316151590565b60008054600160a01b900460ff166002811115610a6757fe5b90509056fe74696d656c6f636b2074696d65206d75737420626520696e20746865206675747572657472616e7366657246726f6d2073656e64657220746f2074686973206661696c6564776974686472617761626c653a2074696d656c6f636b2074696d65206d75737420626520696e2074686520667574757265a265627a7a7231582012cb059ba52db2b417af1e80c2301dd019a229eda68250bfde545b6a94d9dcfd64736f6c63430005100032",
  "source": "pragma solidity >=0.4.22 <0.7.0;\r\n\r\n//impiort the token contract\r\nimport \"./Token.sol\";\r\n\r\n/**\r\n@title Source Chain Contract.\r\nThis contract provide a way to generate an exit proof. \r\nProtocol:\r\n1) exitTransaction (asset, burnaddress, hashlock, timelock)\r\n    A sender calls this to burn his asset to a burn address which creatas\r\n    an transfer proof for a given asset, and returneds a 32 byte transaction recept.\r\n    - Transaction is timelocked for a given time.\r\n    - A preimage of a secret code hash is added.\r\n2) reclaimTransaction ()\r\n    After timelock has expired and if the receiver did not withdraw the asset\r\n    the sender can get their asset back with this function.\r\n\r\n*/\r\n\r\ncontract SourceChain {\r\n    //defin the paramaters\r\n    Token public token; // instance of the token contract\r\n\r\n    //string secretKey; //Secret code\r\n    //address burnAddress; //Burn address\r\n    //uint timeLock; //time lock\r\n\r\n    struct LockContract {\r\n        address sender;\r\n        address receiver;\r\n        uint256 asset;\r\n        bytes32 secretCode;\r\n        uint256 timelock;\r\n        bool withdrawn;\r\n        bool refunded;\r\n        bytes32 preimage;\r\n    }\r\n\r\n    enum AssetStatus {_true, _false, _burn}\r\n    AssetStatus assetStatus;\r\n    AssetStatus constant defaultChoice = AssetStatus._true;\r\n\r\n    modifier contractExists(bytes32 _contractId) {\r\n        require(haveContract(_contractId), \"contractId does not exist\");\r\n        _;\r\n    }\r\n\r\n    modifier withdrawable(bytes32 _contractId) {\r\n        require(\r\n            contracts[_contractId].receiver == msg.sender,\r\n            \"withdrawable: not receiver\"\r\n        );\r\n        require(\r\n            contracts[_contractId].withdrawn == false,\r\n            \"withdrawable: already withdrawn\"\r\n        );\r\n        // if we want to disallow claim to be made after the timeout, uncomment the following line\r\n        // require(contracts[_contractId].timelock > now, \"withdrawable: timelock time must be in the future\");\r\n        _;\r\n    }\r\n    mapping(bytes32 => LockContract) contracts;\r\n\r\n    //events\r\n    //event TokenBurned(address account_from, address address_to, uint unit_token);\r\n    event event_exitTransaction(\r\n        address account_from,\r\n        address address_to,\r\n        uint256 unit_token,\r\n        bytes32 _secretCode,\r\n        uint256 _timelock,\r\n        uint256 _assetStatus\r\n    ); //asset status 'true','false' or 'burn'\r\n    event HTLCERC20Withdraw(bytes32 indexed contractId);\r\n    event HTLCERC20Refund(bytes32 indexed contractId);\r\n    event event_tokensSold(\r\n        address account_from, address account_to,\r\n        uint256 unit_token\r\n    );\r\n\r\n    // transfer the tokens from token contract\r\n    constructor(Token _token) public {\r\n        token = _token;\r\n    }\r\n\r\n    /**\r\n     * @dev Sender sets up the hash timelock burn contract.\r\n     *\r\n     * NOTE: sender must first call the approve() function on the token contract.\r\n     *\r\n     * @param _asset asset to be burned.\r\n     * @param _burnAddress Burn Address.\r\n     * @param _secretCode A sha-2 sha256 hash hashlock.\r\n     * @param _timelock UNIX epoch seconds time that the lock expires at.\r\n     *        Reclaim can be made after this time.\r\n     *\r\n     * @return Tx_receipt - Transaction receipt.\r\n     *\r\n     */\r\n    function exitTransaction(\r\n        uint256 _asset,\r\n        address _burnAddress,\r\n        bytes32 _secretCode,\r\n        uint256 _timelock\r\n    ) external payable returns (bytes32 contractId) {\r\n        \r\n        // check the requirements\r\n        require(_asset > 0, \"asset amount must be > 0\");\r\n        require(_timelock > now, \"timelock time must be in the future\");\r\n        \r\n        //Generate a Transaction ID\r\n        contractId = sha256(\r\n            abi.encodePacked(\r\n                msg.sender,\r\n                _burnAddress,\r\n                _asset,\r\n                _secretCode,\r\n                _timelock\r\n            )\r\n        );\r\n\r\n        // Reject if that Transaction ID already exists\r\n        if (haveContract(contractId)) revert(\"Transaction already exists\");\r\n\r\n        // burn function using openzeppelin library - check this out later....\r\n        // https://medium.com/crowdbotics/how-to-create-a-burnable-token-with-solidity-and-openzeppelin-library-38bd3249d0c7\r\n        // function burn(uint256 _value) public {\r\n        //  _burn(msg.sender, _value);\r\n        //}\r\n\r\n        // Burn the token to burn address\r\n        if (!token.transferFrom(msg.sender, _burnAddress, _asset))\r\n            revert(\"transferFrom sender to this failed\");\r\n\r\n        assetStatus = AssetStatus._burn;\r\n\r\n        // Update the Transaction data\r\n        contracts[contractId] = LockContract(\r\n            msg.sender,\r\n            _burnAddress,\r\n            _asset,\r\n            _secretCode,\r\n            _timelock,\r\n            false, //withdrawn\r\n            false, //refunded\r\n            0x0\r\n        );\r\n\r\n        //transaction event\r\n        emit event_exitTransaction(\r\n            msg.sender,\r\n            _burnAddress,\r\n            _asset,\r\n            _secretCode,\r\n            _timelock,\r\n            getValue()\r\n        );\r\n    }\r\n\r\n    /**\r\n     * @dev Called by the receiver once they know the preimage of the hashlock.\r\n     * This will transfer ownership of the locked tokens to their address.\r\n     *\r\n     * @param _contractId Id of the HTLC.\r\n     * @param _preimage sha256(_preimage) should equal the contract hashlock.\r\n     * @return bool true on success\r\n     */\r\n    function entryTransaction(bytes32 _contractId, bytes32 _preimage)\r\n        external\r\n        payable\r\n        returns (bool)\r\n    {\r\n        // check the requirements\r\n        require(haveContract(_contractId), \"contractId does not exist\");\r\n        require(\r\n            contracts[_contractId].secretCode == sha256(abi.encodePacked(_preimage)),\r\n            \"hashlock hash does not match\"\r\n        );\r\n        require(\r\n            contracts[_contractId].receiver == msg.sender,\r\n            \"withdrawable: not receiver\"\r\n        );\r\n        require(\r\n            contracts[_contractId].withdrawn == false,\r\n            \"withdrawable: already withdrawn\"\r\n        );\r\n        require(\r\n            contracts[_contractId].timelock > now,\r\n            \"withdrawable: timelock time must be in the future\"\r\n        );\r\n\r\n        // get the transaction data\r\n        LockContract storage c = contracts[_contractId];\r\n        c.preimage = _preimage;\r\n        c.withdrawn = true;\r\n        token.transfer(msg.sender, c.asset);\r\n        emit HTLCERC20Withdraw(_contractId);\r\n        return true;\r\n    }\r\n\r\n\r\n    /**\r\n     * @dev Called by the receiver once they know the preimage of the hashlock.\r\n     * This will transfer ownership of the locked tokens to their address.\r\n     *\r\n     * @param _contractId Id of the HTLC.\r\n     * @param _preimage sha256(_preimage) should equal the contract hashlock.\r\n     * @return bool true on success\r\n     */\r\n    function reclaimTransaction(bytes32 _contractId, bytes32 _preimage)\r\n        external\r\n        payable\r\n        returns (bool)\r\n    {\r\n        // check the requirements\r\n        require(haveContract(_contractId), \"contractId does not exist\");\r\n        require(\r\n            contracts[_contractId].secretCode == sha256(abi.encodePacked(_preimage)),\r\n            \"hashlock hash does not match\"\r\n        );\r\n        require(\r\n            contracts[_contractId].receiver == msg.sender,\r\n            \"withdrawable: not receiver\"\r\n        );\r\n        require(\r\n            contracts[_contractId].withdrawn == false,\r\n            \"withdrawable: already withdrawn\"\r\n        );\r\n        require(\r\n            contracts[_contractId].timelock > now,\r\n            \"withdrawable: timelock time must be in the future\"\r\n        );\r\n\r\n        // get the transaction data\r\n        LockContract storage c = contracts[_contractId];\r\n        c.preimage = _preimage;\r\n        c.withdrawn = true;\r\n        token.transfer(msg.sender, c.asset);\r\n        emit HTLCERC20Withdraw(_contractId);\r\n        return true;\r\n    }\r\n\r\n\r\n    function exportVerifier() public pure returns (bool results) {\r\n        //if (spendVerifier() and assetVerifier()) is true\r\n        //return true\r\n        //else\r\n        return true;\r\n    }\r\n\r\n    function spendVerifier() public pure returns (bool results) {\r\n        //check the signature\r\n        // chck the address is generted from the given public key\r\n        return true;\r\n    }\r\n\r\n    function assetVerifier() public pure returns (bool results) {\r\n        //check the asset validity\r\n        return true;\r\n    }\r\n\r\n  \r\n    function reclaimVerifier() public pure returns (bool results) {\r\n        // if (spendVerifier() and proofVerifier()) is true then\r\n        return true;\r\n    }\r\n\r\n    function proofVerifier() public pure returns (bool results) {\r\n        return true;\r\n    }\r\n\r\n    function getValue() internal view returns (uint256) {\r\n        return uint256(assetStatus);\r\n    }\r\n\r\n    // sendre buy a Token form the contract\r\n    function buyTokens() public payable {\r\n        uint256 tokenAmount = msg.value;\r\n        // Require that contract has enough tokens\r\n        require(token.balanceOf(address(this)) >= tokenAmount);\r\n        // Transfer tokens to the user\r\n        token.transfer(msg.sender, tokenAmount);\r\n        //token purchin event\r\n        emit event_tokensSold(msg.sender, address(token), tokenAmount);\r\n    }\r\n\r\n    /**\r\n     * @dev Is there a contract with id _contractId.\r\n     * @param _contractId Id into contracts mapping.\r\n     */\r\n    function haveContract(bytes32 _contractId)\r\n        internal\r\n        view\r\n        returns (bool exists)\r\n    {\r\n        exists = (contracts[_contractId].sender != address(0));\r\n    }\r\n}\r\n",
  "sourcePath": "C:\\_ethereum\\burn-to-claim\\contracts\\SourceChain.sol",
  "compiler": {
    "name": "solc",
    "version": "0.5.16+commit.9c3226ce.Emscripten.clang"
  },
  "schemaVersion": "3.2.0",
  "updatedAt": "2020-07-11T11:05:14.265Z",
  "networkType": "ethereum",
  "devdoc": {
    "methods": {
      "entryTransaction(bytes32,bytes32)": {
        "details": "Called by the receiver once they know the preimage of the hashlock. This will transfer ownership of the locked tokens to their address. ",
        "params": {
          "_contractId": "Id of the HTLC.",
          "_preimage": "sha256(_preimage) should equal the contract hashlock."
        },
        "return": "bool true on success"
      },
      "exitTransaction(uint256,address,bytes32,uint256)": {
        "details": "Sender sets up the hash timelock burn contract.      * NOTE: sender must first call the approve() function on the token contract. ",
        "params": {
          "_asset": "asset to be burned.",
          "_burnAddress": "Burn Address.",
          "_secretCode": "A sha-2 sha256 hash hashlock.",
          "_timelock": "UNIX epoch seconds time that the lock expires at.       Reclaim can be made after this time. "
        },
        "return": "Tx_receipt - Transaction receipt.      "
      },
      "reclaimTransaction(bytes32,bytes32)": {
        "details": "Called by the receiver once they know the preimage of the hashlock. This will transfer ownership of the locked tokens to their address. ",
        "params": {
          "_contractId": "Id of the HTLC.",
          "_preimage": "sha256(_preimage) should equal the contract hashlock."
        },
        "return": "bool true on success"
      }
    },
    "title": "Source Chain Contract. This contract provide a way to generate an exit proof.  Protocol: 1) exitTransaction (asset, burnaddress, hashlock, timelock) A sender calls this to burn his asset to a burn address which creatas an transfer proof for a given asset, and returneds a 32 byte transaction recept. - Transaction is timelocked for a given time. - A preimage of a secret code hash is added. 2) reclaimTransaction () After timelock has expired and if the receiver did not withdraw the asset the sender can get their asset back with this function."
  },
  "userdoc": {
    "methods": {}
  }
}