{
  "contractName": "TransferController1",
  "abi": [
    {
      "inputs": [
        {
          "internalType": "contract Token",
          "name": "_token",
          "type": "address"
        }
      ],
      "payable": false,
      "stateMutability": "nonpayable",
      "type": "constructor"
    },
    {
      "anonymous": false,
      "inputs": [
        {
          "indexed": false,
          "internalType": "address",
          "name": "account_from",
          "type": "address"
        },
        {
          "indexed": false,
          "internalType": "address",
          "name": "address_to",
          "type": "address"
        },
        {
          "indexed": false,
          "internalType": "uint256",
          "name": "unit_token",
          "type": "uint256"
        },
        {
          "indexed": false,
          "internalType": "bytes32",
          "name": "_secretCode",
          "type": "bytes32"
        },
        {
          "indexed": false,
          "internalType": "uint256",
          "name": "_timelock",
          "type": "uint256"
        }
      ],
      "name": "event_exitTransaction",
      "type": "event"
    },
    {
      "anonymous": false,
      "inputs": [
        {
          "indexed": false,
          "internalType": "address",
          "name": "account_from",
          "type": "address"
        },
        {
          "indexed": false,
          "internalType": "address",
          "name": "address_to",
          "type": "address"
        },
        {
          "indexed": false,
          "internalType": "uint256",
          "name": "unit_token",
          "type": "uint256"
        }
      ],
      "name": "event_tokensSold",
      "type": "event"
    },
    {
      "constant": true,
      "inputs": [],
      "name": "token",
      "outputs": [
        {
          "internalType": "contract Token",
          "name": "",
          "type": "address"
        }
      ],
      "payable": false,
      "stateMutability": "view",
      "type": "function"
    },
    {
      "constant": false,
      "inputs": [
        {
          "internalType": "uint256",
          "name": "_asset",
          "type": "uint256"
        },
        {
          "internalType": "address",
          "name": "_burnAddress",
          "type": "address"
        },
        {
          "internalType": "bytes32",
          "name": "_secretCode",
          "type": "bytes32"
        },
        {
          "internalType": "uint256",
          "name": "_timelock",
          "type": "uint256"
        }
      ],
      "name": "exitTransaction",
      "outputs": [
        {
          "internalType": "bytes32",
          "name": "Tx_receipt",
          "type": "bytes32"
        }
      ],
      "payable": true,
      "stateMutability": "payable",
      "type": "function"
    },
    {
      "constant": true,
      "inputs": [],
      "name": "exportVerifier",
      "outputs": [
        {
          "internalType": "bool",
          "name": "results",
          "type": "bool"
        }
      ],
      "payable": false,
      "stateMutability": "pure",
      "type": "function"
    },
    {
      "constant": true,
      "inputs": [],
      "name": "spendVerifier",
      "outputs": [
        {
          "internalType": "bool",
          "name": "results",
          "type": "bool"
        }
      ],
      "payable": false,
      "stateMutability": "pure",
      "type": "function"
    },
    {
      "constant": true,
      "inputs": [],
      "name": "assetVerifier",
      "outputs": [
        {
          "internalType": "bool",
          "name": "results",
          "type": "bool"
        }
      ],
      "payable": false,
      "stateMutability": "pure",
      "type": "function"
    },
    {
      "constant": false,
      "inputs": [],
      "name": "reclaimTransaction",
      "outputs": [],
      "payable": false,
      "stateMutability": "nonpayable",
      "type": "function"
    },
    {
      "constant": true,
      "inputs": [],
      "name": "reclaimVerifier",
      "outputs": [
        {
          "internalType": "bool",
          "name": "results",
          "type": "bool"
        }
      ],
      "payable": false,
      "stateMutability": "pure",
      "type": "function"
    },
    {
      "constant": true,
      "inputs": [],
      "name": "proofVerifier",
      "outputs": [
        {
          "internalType": "bool",
          "name": "results",
          "type": "bool"
        }
      ],
      "payable": false,
      "stateMutability": "pure",
      "type": "function"
    },
    {
      "constant": false,
      "inputs": [],
      "name": "buyTokens",
      "outputs": [],
      "payable": true,
      "stateMutability": "payable",
      "type": "function"
    }
  ],
  "bytecode": "0x608060405234801561001057600080fd5b506040516106fd3803806106fd8339818101604052602081101561003357600080fd5b5051600080546001600160a01b039092166001600160a01b0319909216919091179055610698806100656000396000f3fe6080604052600436106100865760003560e01c806396cbc43a1161005957806396cbc43a1461008b5780639e8de3ed1461008b578063d0febe4c14610115578063facc39431461008b578063fc0c546a1461011d57610086565b806316829b921461008b57806348496d10146100b45780637fa417b31461008b578063838d1ac4146100cb575b600080fd5b34801561009757600080fd5b506100a061014e565b604080519115158252519081900360200190f35b3480156100c057600080fd5b506100c9610153565b005b610103600480360360808110156100e157600080fd5b508035906001600160a01b036020820135169060408101359060600135610155565b60408051918252519081900360200190f35b6100c961049d565b34801561012957600080fd5b506101326105f2565b604080516001600160a01b039092168252519081900360200190f35b600190565b565b6000814281116101965760405162461bcd60e51b815260040180806020018281038252602381526020018061061f6023913960400191505060405180910390fd5b6002338688878760405160200180866001600160a01b03166001600160a01b031660601b8152601401856001600160a01b03166001600160a01b031660601b8152601401848152602001838152602001828152602001955050505050506040516020818303038152906040526040518082805190602001908083835b602083106102315780518252601f199092019160209182019101610212565b51815160209384036101000a60001901801990921691161790526040519190930194509192505080830381855afa158015610270573d6000803e3d6000fd5b5050506040513d602081101561028557600080fd5b5051915061029282610601565b156102e4576040805162461bcd60e51b815260206004820152601a60248201527f5472616e73616374696f6e20616c726561647920657869737473000000000000604482015290519081900360640190fd5b60008054604080516323b872dd60e01b81523360048201526001600160a01b038981166024830152604482018b9052915191909216926323b872dd92606480820193602093909283900390910190829087803b15801561034357600080fd5b505af1158015610357573d6000803e3d6000fd5b505050506040513d602081101561036d57600080fd5b50516103aa5760405162461bcd60e51b81526004018080602001828103825260228152602001806106426022913960400191505060405180910390fd5b600080546001919060ff60a01b1916600160a01b8302179055506040805160a08082018352338083526001600160a01b0389811660208086018281528688018e815260608089018e81526080808b018f815260008f81526001808952908e90209c518d54908b166001600160a01b0319918216178e559651908d01805491909a16961695909517909755915160028a015590516003890155905160049097019690965586519384528301528185018b905292810188905291820186905291517f2e9957a3cd9840c366f2861a9817b1cf1cb886f97a9ccbbda01c1a7889cbc745929181900390910190a150949350505050565b600054604080516370a0823160e01b81523060048201529051349283926001600160a01b03909116916370a0823191602480820192602092909190829003018186803b1580156104ec57600080fd5b505afa158015610500573d6000803e3d6000fd5b505050506040513d602081101561051657600080fd5b5051101561052357600080fd5b600080546040805163a9059cbb60e01b81523360048201526024810185905290516001600160a01b039092169263a9059cbb926044808401936020939083900390910190829087803b15801561057857600080fd5b505af115801561058c573d6000803e3d6000fd5b505050506040513d60208110156105a257600080fd5b5050600054604080513381526001600160a01b039092166020830152818101839052517f7007bc29a103fd08e84c31c574ced1767c37dc3a8450bee57025a64d1750eaf39181900360600190a150565b6000546001600160a01b031681565b6000908152600160205260409020546001600160a01b031615159056fe74696d656c6f636b2074696d65206d75737420626520696e20746865206675747572657472616e7366657246726f6d2073656e64657220746f2074686973206661696c6564a265627a7a72315820d3a0714240067e67b02a4fe3451b60bbb481ec4b3404859e2fd95a8c75ea1f9c64736f6c63430005100032",
  "source": "pragma solidity >=0.4.22 <0.7.0;\r\n\r\n//impiort the token contract\r\nimport \"./Token.sol\";\r\n\r\n/**\r\n@title Source Chain Contract.\r\nThis contract provide a way to generate an exit proof. \r\nProtocol:\r\n1) exitTransaction (asset, burnaddress, hashlock, timelock)\r\n    A sender calls this to burn his asset to a burn address which creatas\r\n    an transfer proof for a given asset, and returneds a 32 byte transaction recept.\r\n    - Transaction is timelocked for a given time.\r\n    - A preimage of a secret code hash is added.\r\n2) reclaimTransaction ()\r\n    After timelock has expired and if the receiver did not withdraw the asset\r\n    the sender can get their asset back with this function.\r\n\r\n*/\r\n\r\ncontract TransferController1 {\r\n\r\n//defin the paramaters\r\nToken public token; // instance of the token contract\r\n\r\n//string secretKey; //Secret code\r\n//address burnAddress; //Burn address\r\n//uint timeLock; //time lock\r\n\r\nstruct LockAssetData {\r\n        address sender;\r\n        address burnAddress;\r\n        uint256 asset;\r\n        bytes32 secretCode;\r\n        uint256 timelock;\r\n    }\r\n\r\nenum AssetStatus {_true, _false, _burn}\r\nAssetStatus assetStatus;\r\nAssetStatus constant defaultChoice = AssetStatus._true;\r\n\r\n modifier futureTimelock(uint256 _time) {\r\n    // timelock time starts after theis blocktime (now).\r\n    require(_time > now, \"timelock time must be in the future\");\r\n    _; }\r\n\r\nmapping (bytes32 => LockAssetData) lockedData;\r\n\r\n//events\r\n//event TokenBurned(address account_from, address address_to, uint unit_token);\r\nevent event_exitTransaction(address account_from, address address_to, uint unit_token, bytes32 _secretCode, uint256 _timelock);\r\nevent event_tokensSold(address account_from, address address_to, uint unit_token);\r\n\r\n// transfer the tokens from token contract\r\nconstructor (Token _token) public {\r\n    token = _token;\r\n}\r\n \r\n/**\r\n@dev Sender sets up the hash time lock burn contract.\r\nNOTE: sender must first call the approve() function on the token contract.\r\n@param _burnAddress Burn Address.\r\n@param _secretCode A sha-2 sha256 hash hashlock.\r\n@param _timelock UNIX epoch seconds time that the lock expires at.\r\n        Reclaim can be made after this time.\r\n@param _asset asset to be burned.\r\n@return contractId Id of the new HTLC. This is needed for subsequent calls.\r\n*/\r\n\r\nfunction exitTransaction(uint _asset, address _burnAddress, bytes32 _secretCode, uint256 _timelock)\r\nexternal payable futureTimelock(_timelock) returns (bytes32 Tx_receipt) {\r\n\r\nTx_receipt = sha256(abi.encodePacked (msg.sender, _burnAddress, _asset, _secretCode, _timelock));\r\n\r\n// Reject if a Transaction already exists\r\nif (haveTransaction(Tx_receipt)) revert(\"Transaction already exists\");\r\n\r\n// burn the token to burn address\r\nif (!token.transferFrom(msg.sender, _burnAddress, _asset)) revert(\"transferFrom sender to this failed\");\r\n\r\nassetStatus = AssetStatus._false;\r\n\r\n// time lock data\r\nlockedData[Tx_receipt] = LockAssetData(msg.sender, _burnAddress, _asset, _secretCode, _timelock);\r\n\r\n//transaction event\r\nemit event_exitTransaction(msg.sender, _burnAddress, _asset, _secretCode, _timelock);\r\n\r\n}\r\n\r\nfunction exportVerifier() public pure returns (bool results){\r\n//if (spendVerifier() and assetVerifier()) is true\r\n//return true\r\n//else\r\nreturn true;\r\n}\r\n\r\nfunction spendVerifier() public pure returns (bool results){\r\n//check the signature\r\n// chck the address is generted from the given public key\r\n\r\nreturn true;\r\n}\r\n\r\nfunction assetVerifier() public pure returns (bool results){\r\n//check the asset validity\r\nreturn true;\r\n}\r\n\r\n// this function is to reclaim the asset\r\n// as per the algorithm 6\r\n\r\nfunction reclaimTransaction() external{\r\n//if reclaimVerifier() return true;\r\n// check the time lock period\r\n// require(now >= timeLock);\r\n// check the secret key\r\n// reclaim the token\r\n// token.transfer(to_address, _amount);\r\n}\r\n\r\nfunction reclaimVerifier() public pure returns (bool results){\r\n  // if (spendVerifier() and proofVerifier()) is true then\r\n    return true;\r\n}\r\n\r\nfunction proofVerifier() public pure returns (bool results){\r\nreturn true;\r\n}\r\n\r\n// sendre buy a Token form the contract\r\nfunction buyTokens() public payable{\r\n    uint tokenAmount = msg.value;\r\n    // Require that contract has enough tokens\r\n    require(token.balanceOf(address(this)) >= tokenAmount);\r\n   // Transfer tokens to the user\r\n    token.transfer(msg.sender, tokenAmount);\r\n    //token purchin event\r\n    emit event_tokensSold(msg.sender,address(token),tokenAmount);\r\n}\r\n/**\r\n     * @dev Is there a contract with id _contractId.\r\n     * @param _Tx_receipt Id into contracts mapping.\r\n     */\r\n    function haveTransaction(bytes32 _Tx_receipt)  internal view  returns (bool exists)  {\r\n        exists = (lockedData[_Tx_receipt].sender != address(0));\r\n    }\r\n\r\n\r\n\r\n}\r\n\r\n",
  "sourcePath": "C:\\Users\\Paul\\Documents\\GitHub\\burn-to-claim\\contracts\\TransferController1.sol",
  "compiler": {
    "name": "solc",
    "version": "0.5.16+commit.9c3226ce.Emscripten.clang"
  },
  "schemaVersion": "3.2.0",
  "updatedAt": "2020-07-08T07:03:06.210Z",
  "devdoc": {
    "methods": {
      "exitTransaction(uint256,address,bytes32,uint256)": {
        "details": "Sender sets up the hash time lock burn contract. NOTE: sender must first call the approve() function on the token contract.",
        "params": {
          "_asset": "asset to be burned.",
          "_burnAddress": "Burn Address.",
          "_secretCode": "A sha-2 sha256 hash hashlock.",
          "_timelock": "UNIX epoch seconds time that the lock expires at. Reclaim can be made after this time."
        },
        "return": "contractId Id of the new HTLC. This is needed for subsequent calls."
      }
    },
    "title": "Source Chain Contract. This contract provide a way to generate an exit proof.  Protocol: 1) exitTransaction (asset, burnaddress, hashlock, timelock) A sender calls this to burn his asset to a burn address which creatas an transfer proof for a given asset, and returneds a 32 byte transaction recept. - Transaction is timelocked for a given time. - A preimage of a secret code hash is added. 2) reclaimTransaction () After timelock has expired and if the receiver did not withdraw the asset the sender can get their asset back with this function."
  },
  "userdoc": {
    "methods": {}
  }
}